:020000040000FA
:100000000C9463000C948B000C948B000C940F06E2
:100010000C940F060C940F060C948B000C948B0020
:100020000C948B000C948B000C948B000C948B0024
:100030000C948B000C948B000C948B000C948B0014
:100040000C94C5050C948B000C9493050C946D05D1
:100050000C948B000C948B000C948B000C948B00F4
:100060000C948B000C948B000000000024002700EF
:100070002A0000000008000201000003040700003D
:1000800000000000000000000000230026002900FE
:1000900000000000250028002B00040404040404D0
:1000A0000404020202020202030303030303010227
:1000B00004081020408001020408102001020408F6
:1000C00010208706380B11241FBECFEFD8E0DEBF0B
:1000D000CDBF12E0A0E0B1E0EAEDFBE102C0059087
:1000E0000D92A435B107D9F724E0A4E5B2E001C030
:1000F0001D92AA32B207E1F710E0C2E6D0E004C0D8
:100100002197FE010E94DA0DC136D107C9F70E947E
:10011000BB080C94E00D0C940000AF92BF92CF92FC
:10012000DF92EF92FF920F931F93CF93DF936C01B7
:100130007B018B01040F151FEB015E01AE18BF0898
:10014000C017D10759F06991D601ED91FC9101904A
:10015000F081E02DC6010995892B79F7C501DF9162
:10016000CF911F910F91FF90EF90DF90CF90BF90B4
:10017000AF900895FC01538D448D252F30E0842FDE
:1001800090E0821B930B541710F0CF9608950197BF
:100190000895FC01918D828D981761F0A28DAE0FAC
:1001A000BF2FB11D5D968C91928D9F5F9F73928F33
:1001B00090E008958FEF9FEF0895FC01918D828D5F
:1001C000981731F0828DE80FF11D858D90E008952C
:1001D0008FEF9FEF0895FC01918D228D892F90E084
:1001E000805C9F4F821B91098F739927089589EA3C
:1001F00092E00E94EB0021E0892B09F420E0822F9D
:10020000089580E090E0892B29F00E94F700811189
:100210000C9400000895FC01A48DA80FB92FB11D06
:10022000A35ABF4F2C91848D90E001968F7399272C
:10023000848FA689B7892C93A089B1898C9183700A
:1002400080648C93938D848D981306C00288F38903
:10025000E02D80818F7D80830895EF92FF920F9330
:100260001F93CF93DF93EC0181E0888F9B8D8C8D62
:1002700098131AC0E889F989808185FF15C09FB756
:10028000F894EE89FF896083E889F9898081837019
:10029000806480839FBF81E090E0DF91CF911F91C8
:1002A0000F91FF90EF900895F62E0B8D10E00F5FE9
:1002B0001F4F0F731127E02E8C8D8E110CC00FB6BF
:1002C00007FCFACFE889F989808185FFF5CFCE0157
:1002D0000E940B01F1CFEB8DEC0FFD2FF11DE35AC6
:1002E000FF4FF0829FB7F8940B8FEA89FB898081DA
:1002F0008062CFCFCF93DF93EC01888D8823B9F054
:10030000AA89BB89E889F9898C9185FD03C0808120
:1003100086FD0DC00FB607FCF7CF8C9185FFF2CF9D
:10032000808185FFEDCFCE010E940B01E9CFDF91E7
:10033000CF910895833081F028F4813099F0823094
:10034000A9F008958730A9F08830C9F08430B1F45D
:10035000809180008F7D03C0809180008F77809393
:100360008000089584B58F7784BD089584B58F7D0E
:10037000FBCF8091B0008F778093B000089580917B
:10038000B0008F7DF9CFCF93DF93282F30E0F901B4
:10039000EE58FF4F8491F901E255FF4FD491F901D6
:1003A000E656FF4FC491CC23A1F081110E949A011F
:1003B000EC2FF0E0EE0FFF1FEA57FF4FA591B4912D
:1003C000EC91ED2381E090E009F480E0DF91CF91A2
:1003D000089580E090E0FACF1F93CF93DF93282F0A
:1003E00030E0F901EE58FF4F8491F901E255FF4FDB
:1003F000D491F901E656FF4FC491CC23A9F0162FF2
:1004000081110E949A01EC2FF0E0EE0FFF1FE057E0
:10041000FF4FA591B4918FB7F894EC91111108C0DA
:10042000D095DE23DC938FBFDF91CF911F9108958C
:10043000DE2BF8CFCF93DF9390E0FC01E255FF4F26
:10044000249186569F4FFC0184918823D1F090E03F
:10045000880F991FFC01E859FF4FA591B491FC0149
:10046000E057FF4FC591D49161110EC09FB7F8942A
:100470008C91E22FE0958E238C932881E223E883F0
:100480009FBFDF91CF9108958FB7F894EC91E22B45
:10049000EC938FBFF6CF3FB7F8948091990290917B
:1004A0009A02A0919B02B0919C0226B5A89B05C020
:1004B0002F3F19F00196A11DB11D3FBFBA2FA92FE3
:1004C000982F8827BC01CD01620F711D811D911DE0
:1004D00042E0660F771F881F991F4A95D1F708954C
:1004E0008F929F92AF92BF92CF92DF92EF92FF9244
:1004F0004B015C010E944B026B017C010E944B028C
:100500006C197D098E099F09683E7340810591052C
:10051000A8F321E0821A9108A108B10888EEC80E5C
:1005200083E0D81EE11CF11C81149104A104B104E4
:1005300029F7FF90EF90DF90CF90BF90AF909F9002
:100540008F90089520919F023091A00228173907BB
:1005500071F490919D0280919E02981741F0E09174
:100560009D02F0E0EC5AFD4F808190E008958FEFFE
:100570009FEF08950895EF92FF920F931F93CF93EB
:10058000DF93DC015C96ED90FC905D97E114F10443
:1005900079F481E090E013969C938E93129790E00B
:1005A00080E0DF91CF911F910F91FF90EF90089520
:1005B0005196ED91FC91529750968C915097982FAF
:1005C00090950FB75E962C915E97122F127021FDB9
:1005D0006095F8942081112319F1282B2083E701DD
:1005E0002197F1F728E0462F50E0308160FF1AC0D4
:1005F000382B3083E7012197F1F7BA01759567959C
:10060000215089F7112381F08081892380830FBFD6
:100610005C968D919C910197F1F781E090E0C1CFBC
:100620002923DCCF3923E5CF9081892BEFCF20918F
:100630009F023091A0022817390771F480919E0221
:1006400020919D0290E0805C9F4F821B910960E4A5
:1006500070E00E94900D089590E080E00895209150
:100660009F023091A00228173907B9F490919D029A
:1006700080919E02981789F0E0919D02F0E0EC5A7B
:10068000FD4F808120919D0230E02F5F3F4F2F73FF
:10069000332720939D0290E008958FEF9FEF0895F8
:1006A000089590E080E00895CF93DF93EC0160E03F
:1006B0008E810E94EC0161E08E810E94EC0160E07D
:1006C0008E810E94EC018BE891E00197F1F7DF91B8
:1006D000CF910895CF92DF92EF92FF920F931F93E5
:1006E000CF93DF936C017C0187E0E80EF11CD0E032
:1006F000C0E0062F10E0B8010C2E02C0759567957A
:100700000A94E2F76170F70181917F010E94EC0188
:100710002196C430D10579F7C601DF91CF911F91A1
:100720000F91FF90EF90DF90CF900C945403CF92F5
:10073000DF92EF92FF920F931F93CF93DF93EC0121
:10074000F62E642F8C810E94EC018D818F3F19F071
:1007500060E00E94EC010F2D10E08F8584FF25C022
:100760006E0187E0C80ED11CF12CE12CB8010E2CD3
:1007700002C0759567950A94E2F76170F601819160
:100780006F010E94EC01FFEFEF1AFF0A88E0E81604
:10079000F10461F7CE01DF91CF911F910F91FF908E
:1007A000EF90DF90CF900C945403B80184E07595DE
:1007B00067958A95E1F7CE010E946A036F2DCE01FD
:1007C000DF91CF911F910F91FF90EF90DF90CF902D
:1007D0000C946A0340E0682F83EF93E00C94970336
:1007E00081E00E94EA038BE39FE10197F1F708950E
:1007F000E0910604E23040F4E150F0E0ED50FC4FAF
:10080000848980680C94EA03E1E0F7CF41E00E941C
:10081000970381E090E00895FB0101900020E9F743
:100820003197AF01461B570BDC01ED91FC91028023
:10083000F381E02D09948F929F92AF92BF92EF9235
:10084000FF920F931F93CF93DF93CDB7DEB7A1979E
:100850000FB6F894DEBF0FBECDBF7C01FA01CB010D
:1008600019A2223008F42AE08E010F5D1F4F822E5C
:10087000912CB12CA12CBF01A50194010E94A40DC3
:10088000F901CA016A300CF5605DD8016E938D01E3
:10089000232B242B252B79F790E080E0109721F073
:1008A000BD01C7010E940C04A1960FB6F894DEBFEB
:1008B0000FBECDBFDF91CF911F910F91FF90EF90B1
:1008C000BF90AF909F908F900895695CDECF2F927C
:1008D0003F924F925F926F927F928F929F92AF92D0
:1008E000BF92CF92DF92EF92FF921F93CF93DF934D
:1008F000EC016A017B01722EAB019601CB01B601BE
:100900000E948B0D60E371E0811126C04601570102
:10091000E894B7F82FEF3FEF4FE75FE7C501B40169
:100920000E948B0D81110CC02FEF3FEF4FE75FE767
:10093000C501B4010E94C10B64E371E0181664F0B4
:100940002FEF3FEF4FE75FE4C701B6010E94190D9B
:100950001816B4F468E371E0CE01DF91CF911F91D6
:10096000FF90EF90DF90CF90BF90AF909F908F90CF
:100970007F906F905F904F903F902F900C940C045D
:100980002FEF3FEF4FE75FECC701B6010E94C10BAD
:1009900087FDE0CF20E030E0A901C701B6010E9449
:1009A000C10B312C212C87FF0DC0E881F98101900A
:1009B000F081E02D6DE2CE0109951C01F7FAF0946B
:1009C000F7F8F09410E060E070E080E09FE37116CB
:1009D00041F020E030E040E251E40E94C60B1F5F8E
:1009E000F6CFA70196010E94550B2B013C010E94F6
:1009F000380C4B015C012AE0BC01A401CE010E942D
:100A00001B047C01E20CF31C1123E1F1C501B401CC
:100A10000E94670C9B01AC01C301B2010E94540B00
:100A20004B015C01E881F9810190F081E02D6EE2DB
:100A3000CE010995E80EF91E115020F120E030E0BA
:100A400040E251E4C501B4010E941E0D2B013C019E
:100A50000E94380C4B01B12CA12C2AE0B501A40155
:100A6000CE010E941B04E80EF91EC501B4010E94CC
:100A7000670C9B01AC01C301B2010E94540B4B01F6
:100A80005C01DACFC701DF91CF911F91FF90EF900A
:100A9000DF90CF90BF90AF909F908F907F906F909E
:100AA0005F904F903F902F9008956CE371E00C940D
:100AB0000C040F931F93CF93DF93EC010E940C045F
:100AC0008C01CE010E945505800F911FDF91CF91BF
:100AD0001F910F9108950C940C041F920F920FB662
:100AE0000F9211242F933F934F935F936F937F93B4
:100AF0008F939F93AF93BF93EF93FF9389EA92E015
:100B00000E940B01FF91EF91BF91AF919F918F9147
:100B10007F916F915F914F913F912F910F900FBEF9
:100B20000F901F9018951F920F920FB60F921124DD
:100B30002F938F939F93EF93FF93E091B902F091DE
:100B4000BA028081E091BF02F091C00282FD1BC019
:100B500090818091C2028F5F8F732091C3028217B0
:100B600041F0E091C202F0E0E755FD4F958F809390
:100B7000C202FF91EF919F918F912F910F900FBE25
:100B80000F901F9018958081F4CF1F920F920FB68F
:100B90000F9211242F933F938F939F93AF93BF9303
:100BA0008091950290919602A0919702B09198023F
:100BB0003091940223E0230F2D3758F50196A11DA3
:100BC000B11D209394028093950290939602A09376
:100BD0009702B09398028091990290919A02A09105
:100BE0009B02B0919C020196A11DB11D80939902B8
:100BF00090939A02A0939B02B0939C02BF91AF91F5
:100C00009F918F913F912F910F900FBE0F901F904A
:100C1000189526E8230F0296A11DB11DD2CF1F9271
:100C20000F920FB60F9211242F933F934F935F9320
:100C30006F937F938F939F93AF93BF93EF93FF93A4
:100C4000E0919F02F091A002309749F0A685B78508
:100C50008585968D91FF14C09C918923A1F4FF9105
:100C6000EF91BF91AF919F918F917F916F915F9124
:100C70004F913F912F910F900FBE0F901F9018959D
:100C80009C91892361F7A389B4899C91858980957A
:100C900089238C93868997890197F1F7608D718DEF
:100CA000A685B785558538E020E0CB010197F1F79F
:100CB000822F90E095958795282F4C91452309F038
:100CC0002068315091F7868D81FD209580919E029C
:100CD00090E001968F73992730919D02381799F013
:100CE000A0919E02B0E0AC5ABD4F2C9380939E021F
:100CF000828D938D0197F1F7A389B4898C919589A1
:100D0000892B8C93ACCF868D8160868FF1CFCF936A
:100D1000DF931092AC021092AB0288EE93E0A0E059
:100D2000B0E08093AD029093AE02A093AF02B09377
:100D3000B00224E031E03093AA022093A90225EC0E
:100D400030E03093B6022093B50224EC30E03093CB
:100D5000B8022093B70220EC30E03093BA0220931F
:100D6000B90221EC30E03093BC022093BB0222ECAC
:100D700030E03093BE022093BD0226EC30E0309389
:100D8000C0022093BF021092C2021092C3021092BE
:100D9000C4021092C50210920E0410920D048093AA
:100DA0000F0490931004A0931104B093120482E2F4
:100DB00091E090930C0480930B0410922204109203
:100DC00021041092240410922304109226041092FD
:100DD00025041092280410922704609129046E7F44
:100DE0006D7F609329046695617081E0682789E0D2
:100DF0000E94EC0161E089E00E941A02E7EBF0E05A
:100E0000E491E0931B04E3EAF0E0E491F0E0EE0FFC
:100E1000FF1FE057FF4F8591949190931D0480939D
:100E20001C0460E08AE00E941A028091290481FD7E
:100E300004C061E08AE00E94EC018AE0809317041C
:100E4000E8EBF0E0E491E0931804E4EAF0E0E491E8
:100E5000F0E0EE0FFF1FEA57FF4F859194919093BA
:100E60001A04809319041092F6031092F50386E198
:100E700091E09093F4038093F3038CE08093F70365
:100E80008FEF8093F8038BE08093F90385E08093E4
:100E9000FA0384E08093FB0383E08093FC0382E009
:100EA0008093FD031092FE031092FF031092000442
:100EB000109201041092020481E0809306041092C3
:100EC000070480E48093080480E18093090480E5AE
:100ED00080930A0461E08CE00E941A028091F8037A
:100EE0008F3F19F061E00E941A0261E08091F903DE
:100EF0000E941A02C3EFD3E09E01235F334080912A
:100F0000020484FD0BC084E090E021962817390785
:100F100044F461E08E810E941A02EECF88E090E0F6
:100F2000F4CF8BE39DE00197F1F760E08091F70348
:100F30000E94EC0160E08091F9030E94EC01809135
:100F4000F8038F3F19F060E00E94EC0180910204E9
:100F500084FDFBC063E083EF93E00E946A03CBE46F
:100F6000D6E4CE010197F1F763E083EF93E00E94AE
:100F70006A032197F1F763E083EF93E00E946A032D
:100F800083E592E00197F1F762E083EF93E00E943E
:100F90006A038091020480620E94EA0384E08093E5
:100FA00003048CE00E94EA030E94F003C2E0C093B5
:100FB000040486E00E94EA0310924603109247035D
:100FC000109249031092480310924A0310924B0367
:100FD00010924C0310924D0310924E031092500346
:100FE00010924F0310925103109252031092530328
:100FF0001092540310925503109257031092560307
:10100000109258031092590310925A0310925B03E6
:1010100010925C0310925E0310925D0310925F03C6
:1010200010926003109261031092620310926303A6
:10103000109268031092690310926A0310926B0376
:1010400010926C0310926D03109276031092770346
:10105000109278031092790310927A0310927B0316
:10106000109284031092850310928A0310928B03CE
:1010700010928C0310928D0310929203109293039E
:10108000109298031092990310929A0310929B0366
:101090001092A0031092A1031092A6031092A7032E
:1010A0001092A8031092A9031092AE031092AF03FE
:1010B0001092B4031092B5031092B6031092B703C6
:1010C0001092BC031092BD031092C2031092C3038E
:1010D0001092C4031092C5031092CA031092CB035E
:1010E000C093DB031092DC031092DD031092DE0349
:1010F0001092E0031092DF031092E2031092E103DA
:101100001092E3031092E4031092E5031092E603B9
:101110001092E7031092E8031092E9031092EA0399
:101120001092EB031092EC031092ED031092EE0379
:101130001092EF031092F0031092F1031092F20359
:101140001092CC03DF91CF91089580620E94EA0350
:101150008BE496E40197F1F78091020480620E948B
:10116000EA0383E592E00197F1F78091020480623F
:101170000E94EA030ECF789484B5826084BD84B562
:10118000816084BD85B5826085BD85B5816085BD82
:1011900080916E00816080936E001092810080913A
:1011A00081008260809381008091810081608093C2
:1011B0008100809180008160809380008091B100E7
:1011C00084608093B1008091B00081608093B00012
:1011D00080917A00846080937A0080917A008260A6
:1011E00080937A0080917A00816080937A00809168
:1011F0007A00806880937A001092C10010922604D1
:1012000010922504109224041092230410922204B8
:10121000109221048DE991E0909328048093270493
:1012200090911704963108F047C02DEB30E03093D1
:101230002204209321042BE931E0309324042093ED
:1012400023042CE231E030932604209325042091DE
:10125000680084E0983048F031E09E3008F430E0D7
:1012600081E001C0880F3A95EAF7822B80936800ED
:101270002DE630E0983050F02BE630E09E3030F034
:101280002CE630E0963110F030E020E030931F047F
:1012900020931E04292F30E0983008F093C181E09C
:1012A00001C0880F9A95EAF7809320048091270463
:1012B000909128040197F1F78091250490912604DC
:1012C000892B49F1E0919F02F091A00284E0EB307C
:1012D000F80709F1309739F0A389B4899C91858981
:1012E000809589238C93809129048E7F8093290493
:1012F00010929E0210929D028BE094E09093A002C7
:1013000080939F02E0911E04F0911F0480819091D0
:101310002004892B8083E091B902F091BA0282E027
:101320008083E091B502F091B6021082E091B7029D
:10133000F091B8028FEC80831092C102E091BD025F
:10134000F091BE0286E08083E091BB02F091BC0286
:10135000808180618083E091BB02F091BC0280813A
:1013600088608083E091BB02F091BC02808180683C
:101370008083E091BB02F091BC0280818F7D8083ED
:1013800060E087E00E941A0260E08DE00E941A028D
:1013900061E088E00E941A0261E086E00E941A0281
:1013A000C0E0D0E08FE7C82E8BE7D82E8EEBE82E7A
:1013B00081E4F82E93E3892E93ED992E94EBA92ED8
:1013C00092E4B92E8DE00E94C301019709F02BC170
:1013D0000E94F0036FE371E083EF93E00E946B05DE
:1013E0000E94F80365E472E083EF93E00E946B05CE
:1013F00089EA92E00E9455056EE471E089EA92E084
:101400000E946B0561E088E00E94EC0187E00E9489
:10141000C301019709F0E3C00E94F00368EF71E097
:1014200083EF93E00E946B050E94F8036CE671E085
:1014300083EF93E00E946B0562E272E089EA92E03A
:101440000E94590569E771E089EA92E00E946B0504
:1014500061E086E00E94EC01C092A502D092A60253
:10146000E092A702F092A8026DEB71E083EF93E0A7
:101470000E9459054091A5025091A6026091A702D1
:101480007091A80222E083EF93E00E94670464EF6A
:1014900071E080E090E00E9470020E94F003809270
:1014A000A1029092A202A092A302B092A40262ECC6
:1014B00071E083EF93E00E9459054091A1025091A1
:1014C000A2026091A3027091A40222E083EF93E054
:1014D0000E94670464EF71E080E090E00E94700277
:1014E0000E94F00389EA92E00E94550568EC71E0E1
:1014F00089EA92E00E94590562ED71E089EA92E082
:101500000E94590569EE71E089EA92E00E9459054E
:1015100062E272E089EA92E00E94590567E072E0B7
:1015200089EA92E00E946B054091A5025091A602C3
:101530006091A7027091A80222E089EA92E00E94DD
:10154000670489EA92E00E94550565E172E089EA44
:1015500092E00E946B054091A1025091A20260911D
:10156000A3027091A40222E089EA92E00E9467043B
:1015700089EA92E00E94550589EA92E00E945505A9
:1015800064E670E080E090E00E9470026AE189EA1F
:1015900092E00E942D0189EA92E00E94550568EED2
:1015A00073E080E090E00E9470020E94F0032097B8
:1015B00009F408CF0E94F700882309F403CF0E94A2
:1015C000000000CF9E3040F42850310981E001C076
:1015D000880F2A95EAF768CE2E503109F7CF87E0B9
:1015E0000E94C301892B09F037CF0E94F00368EFF6
:1015F00071E083EF93E00E946B050E94F80364EBB7
:1016000071E083EF93E00E946B0562E272E089EA89
:1016100092E00E94590565EA71E089EA92E00E9431
:101620006B0560E016CF0E94F00364E272E083EF86
:1016300093E00E946B050E94F80365E472E083EF7B
:1016400093E00E946B0562E272E089EA92E00E94F8
:10165000590563E372E089EA92E00E946B0560E05D
:1016600088E00E94EC0160E086E00E94EC0197CFE8
:1016700082E291E090930C0480930B0480919F028E
:101680009091A0028B50944071F4E0911E04F0916F
:101690001F0490818091200480958923808310927B
:1016A000A00210929F0208955058BB27AA270E94BB
:1016B0006C0B0C94DF0C0E94D10C38F00E94D80CFB
:1016C00020F039F49F3F19F426F40C94CE0C0EF45C
:1016D000E095E7FB0C94C80CE92F0E94F00C58F33E
:1016E000BA17620773078407950720F079F4A6F507
:1016F0000C94120D0EF4E0950B2EBA2FA02D0B01B9
:10170000B90190010C01CA01A0011124FF27591B46
:1017100099F0593F50F4503E68F11A16F040A22F4C
:10172000232F342F4427585FF3CF469537952795BD
:10173000A795F0405395C9F77EF41F16BA0B620BBC
:10174000730B840BBAF09150A1F0FF0FBB1F661F03
:10175000771F881FC2F70EC0BA0F621F731F841F46
:1017600048F4879577956795B795F7959E3F08F06C
:10177000B0CF9395880F08F09927EE0F979587952E
:1017800008950E94A40C08F481E008950E94DA0BE9
:101790000C94DF0C0E94D80C58F00E94D10C40F041
:1017A00029F45F3F29F00C94C80C51110C94130DCF
:1017B0000C94CE0C0E94F00C68F39923B1F35523DE
:1017C00091F3951B550BBB27AA2762177307840754
:1017D00038F09F5F5F4F220F331F441FAA1FA9F3EA
:1017E00035D00E2E3AF0E0E832D091505040E695D8
:1017F000001CCAF72BD0FE2F29D0660F771F881F39
:10180000BB1F261737074807AB07B0E809F0BB0B2B
:10181000802DBF01FF2793585F4F3AF09E3F51053F
:1018200078F00C94C80C0C94130D5F3FE4F3983ED1
:10183000D4F3869577956795B795F7959F5FC9F728
:10184000880F911D9695879597F90895E1E0660FA9
:10185000771F881FBB1F621773078407BA0720F022
:10186000621B730B840BBA0BEE1F88F7E09508958B
:101870000E94F80C88F09F5798F0B92F9927B7511C
:10188000B0F0E1F0660F771F881F991F1AF0BA9524
:10189000C9F714C0B13091F00E94120DB1E0089563
:1018A0000C94120D672F782F8827B85F39F0B93F55
:1018B000CCF3869577956795B395D9F73EF49095D7
:1018C0008095709561957F4F8F4F9F4F0895E89455
:1018D00009C097FB3EF490958095709561957F4F78
:1018E0008F4F9F4F9923A9F0F92F96E9BB27939526
:1018F000F695879577956795B795F111F8CFFAF436
:10190000BB0F11F460FF1BC06F5F7F4F8F4F9F4F66
:1019100016C0882311F096E911C0772321F09EE8C4
:10192000872F762F05C0662371F096E8862F70E02A
:1019300060E02AF09A95660F771F881FDAF7880F04
:101940009695879597F90895990F0008550FAA0B5A
:10195000E0E8FEEF16161706E807F907C0F01216C2
:101960001306E407F50798F0621B730B840B950BC5
:1019700039F40A2661F0232B242B252B21F408951A
:101980000A2609F4A140A6958FEF811D811D0895B7
:1019900097F99F6780E870E060E008959FEF80EC22
:1019A000089500240A9416161706180609060895C5
:1019B00000240A9412161306140605060895092E2B
:1019C0000394000C11F4882352F0BB0F40F4BF2B9A
:1019D00011F460FF04C06F5F7F4F8F4F9F4F0895DA
:1019E00057FD9058440F551F59F05F3F71F04795D0
:1019F000880F97FB991F61F09F3F79F087950895B5
:101A0000121613061406551FF2CF4695F1DF08C0D3
:101A1000161617061806991FF1CF869571056105F0
:101A200008940895E894BB2766277727CB0197F998
:101A300008950E94A40C08F48FEF08950E94310DC0
:101A40000C94DF0C0E94D10C38F00E94D80C20F0CE
:101A5000952311F00C94C80C0C94CE0C11240C940A
:101A6000130D0E94F00C70F3959FC1F3950F50E099
:101A7000551F629FF001729FBB27F00DB11D639F40
:101A8000AA27F00DB11DAA1F649F6627B00DA11DE6
:101A9000661F829F2227B00DA11D621F739FB00D8C
:101AA000A11D621F839FA00D611D221F749F3327FC
:101AB000A00D611D231F849F600D211D822F762F95
:101AC0006A2F11249F5750409AF0F1F088234AF072
:101AD000EE0FFF1FBB1F661F771F881F91505040DE
:101AE000A9F79E3F510580F00C94C80C0C94130D7F
:101AF0005F3FE4F3983ED4F3869577956795B79565
:101B0000F795E7959F5FC1F7FE2B880F911D96957E
:101B1000879597F908950E94A40C880B990B089556
:101B200097FB072E16F4009407D077FD09D00E948A
:101B3000C60D07FC05D03EF4909581959F4F089502
:101B4000709561957F4F0895A1E21A2EAA1BBB1BC9
:101B5000FD010DC0AA1FBB1FEE1FFF1FA217B30779
:101B6000E407F50720F0A21BB30BE40BF50B661F8F
:101B7000771F881F991F1A9469F760957095809553
:101B800090959B01AC01BD01CF010895AA1BBB1B21
:101B900051E107C0AA1FBB1FA617B70710F0A61B6D
:101BA000B70B881F991F5A95A9F780959095BC018E
:101BB000CD010895EE0FFF1F0590F491E02D0994DB
:101BC00010E0C2E6D0E004C0FE010E94DA0D2196CA
:101BD000C336D107C9F7F894FFCF000000002D01EC
:101BE0008D00BA007A01EB00C900DD0000000000A2
:101BF00006048D005103500300000000BB028D005D
:101C00005103BA0217032F03A2026E616E00696EC0
:101C100066006F7666000D0A00547261696E20439B
:101C20006C6F736520746F00547261696E20436C31
:101C30006F736520746F2063726F7373696E6720B2
:101C4000706F696E74006973206E6F7420436C65E9
:101C5000617200416C61727421212043726F737351
:101C6000696E6720506F696E74206973206E6F749F
:101C700020436C656172202121416C6172740043C4
:101C8000726F7373696E6720506F696E7420697329
:101C900020436C656172004C41543A004C4F4E47F2
:101CA0003A0041542B434D47463D310041542B43AC
:101CB0004D47533D223031353530303139343334AE
:101CC000220D00547261696E20436C6F736520743D
:101CD0006F2043726F7373696E6720506F696E7403
:101CE000004C61746974756465284E293A20004C73
:101CF0006F6E6769747564652845293A20005472CF
:101D000061696E204661722066726F6D0054726167
:101D1000696E206973204661722066726F6D206360
:0E1D2000726F7373696E6720706F696E740066
:107E0000112484B714BE81FFF0D085E080938100F7
:107E100082E08093C00088E18093C10086E0809377
:107E2000C20080E18093C4008EE0C9D0259A86E02C
:107E300020E33CEF91E0309385002093840096BBD3
:107E4000B09BFECF1D9AA8958150A9F7CC24DD24C4
:107E500088248394B5E0AB2EA1E19A2EF3E0BF2EE7
:107E6000A2D0813461F49FD0082FAFD0023811F036
:107E7000013811F484E001C083E08DD089C08234E0
:107E800011F484E103C0853419F485E0A6D080C0E4
:107E9000853579F488D0E82EFF2485D0082F10E0AE
:107EA000102F00270E291F29000F111F8ED06801E7
:107EB0006FC0863521F484E090D080E0DECF843638
:107EC00009F040C070D06FD0082F6DD080E0C81688
:107ED00080E7D80618F4F601B7BEE895C0E0D1E017
:107EE00062D089930C17E1F7F0E0CF16F0E7DF06D8
:107EF00018F0F601B7BEE89568D007B600FCFDCFD4
:107F0000A601A0E0B1E02C9130E011968C91119780
:107F100090E0982F8827822B932B1296FA010C0160
:107F200087BEE89511244E5F5F4FF1E0A038BF0790
:107F300051F7F601A7BEE89507B600FCFDCF97BE46
:107F4000E89526C08437B1F42ED02DD0F82E2BD052
:107F50003CD0F601EF2C8F010F5F1F4F84911BD097
:107F6000EA94F801C1F70894C11CD11CFA94CF0C13
:107F7000D11C0EC0853739F428D08EE10CD085E9AC
:107F80000AD08FE07ACF813511F488E018D01DD067
:107F900080E101D065CF982F8091C00085FFFCCF94
:107FA0009093C60008958091C00087FFFCCF809118
:107FB000C00084FD01C0A8958091C6000895E0E648
:107FC000F0E098E1908380830895EDDF803219F02E
:107FD00088E0F5DFFFCF84E1DECF1F93182FE3DFCA
:107FE0001150E9F7F2DF1F91089580E0E8DFEE27F6
:047FF000FF270994CA
:027FFE00040479
:00000001FF
