:020000040000FA
:100000000C9462000C948A000C948A000C944305B2
:100010000C9443050C9443050C948A000C948A00BC
:100020000C948A000C948A000C948A000C94870427
:100030000C948A000C948A000C948A000C948A0018
:100040000C943D040C948A000C940B040C94E5036E
:100050000C948A000C948A000C948A000C948A00F8
:100060000C948A000C948A000000000024002700F1
:100070002A0000000000250028002B0000000000DE
:1000800023002600290004040404040404040202DA
:100090000202020203030303030301020408102007
:1000A0004080010204081020010204081020000012
:1000B0000008000201000003040700000000000027
:1000C00000004D0511241FBECFEFD8E0DEBFCDBF2D
:1000D00011E0A0E0B1E0E0EFF0E102C005900D9288
:1000E000A63AB107D9F722E0A6EAB1E001C01D9215
:1000F000A139B207E1F710E0C2E6D0E004C02197D1
:10010000FE010E947008C136D107C9F70E9472062D
:100110000C9476080C940000CF92DF92EF92FF923D
:10012000DC01A03282E0B807D4F5A53BB10514F09C
:10013000A4EBB0E040918F0228E830E0241B3109A5
:1001400047FD3395220F331F220F331F6901330FF1
:10015000EE08FF084091900228E532E0241B3109A7
:1001600047FD3395220F331F220F331F032E000C40
:10017000440B550B2C193D094E095F09B7FF02C00E
:10018000B0E0A0E00E942B0824EB30E040E050E01B
:100190000E940108C20ED31EE41EF51ED601E09196
:1001A0008E02EC3080F520918F0288E890E0821B6F
:1001B000910927FD9395880F991F880F991FA817FC
:1001C000B90784F02091900288E592E0821B9109A2
:1001D00027FD9395880F991F880F991FA817B907B6
:1001E0000CF4CD010297880F991F4FB7F8942E2F6A
:1001F00030E0F901EE0FFF1FE20FF31FEF5AFD4F42
:10020000928381834FBFFF90EF90DF90CF9008954E
:10021000AF92BF92CF92DF92EF92FF920F931F9314
:10022000CF93DF936C017B018B01040F151FEB0152
:100230005E01AE18BF08C017D10759F06991D60109
:10024000ED91FC910190F081E02DC6010995892B7B
:1002500079F7C501DF91CF911F910F91FF90EF903A
:10026000DF90CF90BF90AF900895FC01538D448DE7
:10027000252F30E0842F90E0821B930B541710F051
:10028000CF96089501970895FC01918D828D98175E
:1002900061F0A28DAE0FBF2FB11D5D968C91928D36
:1002A0009F5F9F73928F90E008958FEF9FEF089567
:1002B000FC01918D828D981731F0828DE80FF11D30
:1002C000858D90E008958FEF9FEF0895FC01918D4B
:1002D000228D892F90E0805C9F4F821B91098F7344
:1002E0009927089584EB91E00E94660121E0892B13
:1002F00009F420E0822F089580E090E0892B29F016
:100300000E94720181110C9400000895FC01A48DDB
:10031000A80FB92FB11DA35ABF4F2C91848D90E027
:1003200001968F739927848FA689B7892C93A0890A
:10033000B1898C91837080648C93938D848D981394
:1003400006C00288F389E02D80818F7D8083089527
:10035000EF92FF920F931F93CF93DF93EC0181E015
:10036000888F9B8D8C8D98131AC0E889F9898081BC
:1003700085FF15C09FB7F894EE89FF896083E889EF
:10038000F98980818370806480839FBF81E090E0E1
:10039000DF91CF911F910F91FF90EF900895F62E6E
:1003A0000B8D10E00F5F1F4F0F731127E02E8C8D08
:1003B0008E110CC00FB607FCFACFE889F98980814D
:1003C00085FFF5CFCE010E948601F1CFEB8DEC0FBA
:1003D000FD2FF11DE35AFF4FF0829FB7F8940B8F6A
:1003E000EA89FB8980818062CFCFCF93DF93EC01D4
:1003F000888D8823B9F0AA89BB89E889F9898C910D
:1004000085FD03C0808186FD0DC00FB607FCF7CFC8
:100410008C9185FFF2CF808185FFEDCFCE010E94C8
:100420008601E9CFDF91CF910895833081F028F4E0
:10043000813099F08230A9F008958730A9F0883092
:10044000C9F08430B1F4809180008F7D03C0809129
:1004500080008F7780938000089584B58F7784BD66
:10046000089584B58F7DFBCF8091B0008F77809306
:10047000B00008958091B0008F7DF9CFCF93DF93C6
:10048000282F30E0F901E255FF4F8491F901E6563B
:10049000FF4FD491F901EA57FF4FC491CC23A1F04B
:1004A00081110E941502EC2FF0E0EE0FFF1FE458BF
:1004B000FF4FA591B491EC91ED2381E090E009F418
:1004C00080E0DF91CF91089580E090E0FACF1F9314
:1004D000CF93DF93282F30E0F901E255FF4F84914D
:1004E000F901E656FF4FD491F901EA57FF4FC49145
:1004F000CC23A9F0162F81110E941502EC2FF0E0F9
:10050000EE0FFF1FEE58FF4FA591B4918FB7F894EF
:10051000EC91111108C0D095DE23DC938FBFDF91E1
:10052000CF911F910895DE2BF8CFCF93DF9390E00A
:10053000FC01E656FF4F24918A579F4FFC0184919E
:100540008823D1F090E0880F991FFC01E859FF4FF4
:10055000A591B491FC01EE58FF4FC591D491611162
:100560000EC09FB7F8948C91E22FE0958E238C9368
:100570002881E223E8839FBFDF91CF9108958FB751
:10058000F894EC91E22BEC938FBFF6CF3FB7F89441
:100590008091AE019091AF01A091B001B091B101F5
:1005A00026B5A89B05C02F3F19F00196A11DB11DCE
:1005B0003FBFBA2FA92F982F8827BC01CD01620F0A
:1005C000711D811D911D42E0660F771F881F991FC5
:1005D0004A95D1F708958F929F92AF92BF92CF9292
:1005E000DF92EF92FF924B015C010E94C6026B0109
:1005F0007C010E94C6026C197D098E099F09683E24
:10060000734081059105A8F321E0821A9108A108A1
:10061000B10888EEC80E83E0D81EE11CF11C8114DD
:100620009104A104B10429F7FF90EF90DF90CF90DF
:10063000BF90AF909F908F900895089590E080E0D4
:100640000895FB0101900020E9F73197AF01461BA7
:10065000570BDC01ED91FC910280F381E02D0994B0
:10066000CF93DF93BC0184EB91E00E942103EC0166
:100670006EE171E084EB91E00E9421038C0F9D1FDD
:10068000DF91CF910895CF93DF93EC0160E08E81ED
:100690000E94670261E08E810E94670260E08E81A5
:1006A0000E9467028BE891E00197F1F7DF91CF910B
:1006B0000895CF92DF92EF92FF920F931F93CF9303
:1006C000DF936C017C0187E0E80EF11CD0E0C0E014
:1006D000062F10E0B8010C2E02C0759567950A949C
:1006E000E2F76170F70181917F010E946702219614
:1006F000C430D10579F7C601DF91CF911F910F91D9
:10070000FF90EF90DF90CF900C944303CF92DF9255
:10071000EF92FF920F931F93CF93DF93EC01F62E8E
:10072000642F8C810E9467028D818F3F19F060E0F9
:100730000E9467020F2D10E08F8584FF25C06E0197
:1007400087E0C80ED11CF12CE12CB8010E2C02C0A0
:10075000759567950A94E2F76170F60181916F01D2
:100760000E946702FFEFEF1AFF0A88E0E816F10423
:1007700061F7CE01DF91CF911F910F91FF90EF9024
:10078000DF90CF900C944303B80184E07595679592
:100790008A95E1F7CE010E9459036F2DCE01DF91BA
:1007A000CF911F910F91FF90EF90DF90CF900C941D
:1007B000590340E0682F86E792E00C94860341E0FD
:1007C0000E94860381E090E008951F920F920FB679
:1007D0000F9211242F933F934F935F936F937F93C7
:1007E0008F939F93AF93BF93EF93FF9384EB91E02D
:1007F0000E948601FF91EF91BF91AF919F918F91E0
:100800007F916F915F914F913F912F910F900FBE0C
:100810000F901F9018951F920F920FB60F921124F0
:100820002F938F939F93EF93FF93E091C401F091E7
:10083000C5018081E091CA01F091CB0182FD1BC00E
:1008400090818091CD018F5F8F732091CE018217AF
:1008500041F0E091CD01F0E0EC54FE4F958F809394
:10086000CD01FF91EF919F918F912F910F900FBE2E
:100870000F901F9018958081F4CF1F920F920FB6A2
:100880000F9211242F933F938F939F93AF93BF9316
:100890008091AA019091AB01A091AC01B091AD0102
:1008A0003091A90123E0230F2D3758F50196A11DA2
:1008B000B11D2093A9018093AA019093AB01A0934D
:1008C000AC01B093AD018091AE019091AF01A091C8
:1008D000B001B091B1010196A11DB11D8093AE018F
:1008E0009093AF01A093B001B093B101BF91AF91CC
:1008F0009F918F913F912F910F900FBE0F901F905E
:10090000189526E8230F0296A11DB11DD2CF1F9284
:100910000F920FB60F9211242F933F934F935F9333
:100920006F937F938F939F93AF93BF93CF93DF93F7
:10093000EF93FF938091A801C0917502D0E087FFEB
:1009400024C010928500109284008091A8018F5FCE
:100950008093A8018091A801082E000C990B8C1798
:100960009D0724F48091A8018C30C4F1809184000B
:1009700090918500049680349C4908F47AC0809157
:10098000840090918500049676C08091A801082E7D
:10099000000C990B8C179D07C4F6E091A8018E2FCF
:1009A000EE0F990BFC01EE0FFF1FE80FF91FEF5A36
:1009B000FD4F808186FFC9CFE091A8018E2FEE0FF9
:1009C000990BFC01EE0FFF1FE80FF91FEF5AFD4FC7
:1009D000808160E08F730E946702B7CF209184000E
:1009E00030918500E091A8018E2FEE0F990BFC014C
:1009F000EE0FFF1FE80FF91FEF5AFD4F8181928123
:100A0000820F931F9093890080938800E091A80142
:100A10008E2FEE0F990BFC01EE0FFF1FE80FF91F51
:100A2000EF5AFD4F808186FF11C0E091A8018E2F03
:100A3000EE0F990BFC01EE0FFF1FE80FF91FEF5AA5
:100A4000FD4F808161E08F730E946702FF91EF91FB
:100A5000DF91CF91BF91AF919F918F917F916F91D6
:100A60005F914F913F912F910F900FBE0F901F906C
:100A7000189580E49CE990938900809388008FEF1B
:100A80008093A801E3CF1F920F920FB60F9211240B
:100A90000F900FBE0F901F901895CF93DF93109279
:100AA000B7011092B60188EE93E0A0E0B0E0809329
:100AB000B8019093B901A093BA01B093BB0184E04F
:100AC00091E09093B5018093B40185EC90E0909310
:100AD000C1018093C00184EC90E09093C3018093A6
:100AE000C20180EC90E09093C5018093C40181EC39
:100AF00090E09093C7018093C60182EC90E09093C0
:100B0000C9018093C80186EC90E09093CB0180935B
:100B1000CA011092CD011092CE011092CF01109215
:100B2000D001809175028C3008F06DC091E0980F73
:100B30009093750280938E0290E0FC01EE0FFF1FF0
:100B4000E80FF91FEF5AFD4F88EB9BE092838183FA
:100B5000109279021092780286E191E090937702E8
:100B6000809376028CE080937A028FEF80937B02F1
:100B70008BE080937C0285E080937D0284E080930B
:100B80007E0283E080937F0282E080938002109255
:100B900081021092820210928302109284021092BB
:100BA000850281E08093890210928A0280E480931A
:100BB0008B0280E180938C0280E580938D0261E05E
:100BC0008CE00E94950280917B028F3F19F061E0DA
:100BD0000E94950261E080917C020E949502C6E726
:100BE000D2E09E01265732408091850284FD0FC0DD
:100BF00084E090E021962817390764F461E08E8143
:100C00000E949502EECF8FEF80938E02A1CF88E0F5
:100C100090E0F0CF8BE39DE00197F1F760E08091E9
:100C20007A020E94670260E080917C020E94670263
:100C300080917B028F3F19F060E00E9467028091F3
:100C4000850284FD39C063E086E792E00E94590383
:100C5000CBE4D6E4CE010197F1F763E086E792E0BA
:100C60000E9459032197F1F763E086E792E00E9422
:100C7000590383E592E00197F1F762E086E792E09D
:100C80000E9459038091850280620E94D90384E00A
:100C9000809386028CE00E94D90381E00E94D903F0
:100CA0008BE39FE10197F1F782E08093870286E072
:100CB000DF91CF910C94D90380620E94D9038BE419
:100CC00096E40197F1F78091850280620E94D90332
:100CD00083E592E00197F1F78091850280620E949E
:100CE000D903D0CF789484B5826084BD84B5816007
:100CF00084BD85B5826085BD85B5816085BD8091E7
:100D00006E00816080936E0010928100809181005E
:100D10008260809381008091810081608093810056
:100D2000809180008160809380008091B100846018
:100D30008093B1008091B00081608093B000809179
:100D40007A00846080937A0080917A008260809338
:100D50007A0080917A00816080937A0080917A0095
:100D6000806880937A001092C100E091C401F091F4
:100D7000C50182E08083E091C001F091C101108241
:100D8000E091C201F091C3018FEC80831092CC01FD
:100D9000E091C801F091C90186E08083E091C6012D
:100DA000F091C701808180618083E091C601F0915C
:100DB000C701808188608083E091C601F091C701FE
:100DC000808180688083E091C601F091C7018081B5
:100DD0008F7D808360E088E00E94950260E089E07A
:100DE0000E94950261E086E00E94950261E087E042
:100DF0000E94950280918E028C3008F051C061E013
:100E00008DE00E94950280918E02282F30E0F9013A
:100E1000EE0FFF1FE20FF31FEF5AFD4F9081907C02
:100E20009D60908310928F02109290022CE0622FAE
:100E30000E946408829FB001112430E020E0AB01E1
:100E4000420F531FFA01EE0FFF1FE40FF51FEF5A79
:100E5000FD4F908196FD16C02F5F3F4F2C3031051E
:100E600071F781110FC01092800082E080938100A1
:100E70001092850010928400B19A80916F00826078
:100E800080936F00E0918E028E2F90E0FC01EE0FB8
:100E9000FF1FE80FF91FEF5AFD4F808180648083A8
:100EA000CBE3DFE100E010E088E00E943E02209109
:100EB0008902E1E0019709F081C02111E0E0E195AC
:100EC000F0E0EA58FD4F848980680E94D90361E20E
:100ED00071E086E792E00E94210389E00E943E02D1
:100EE0000197B1F561E087E00E94670261E086E06A
:100EF0000E94670290E080E00E948C006EE171E049
:100F000084EB91E00E9421038EE291E00E94300385
:100F100088E391E00E9430038FE491E00E94300367
:100F200068EE73E080E090E00E94EB0281E00E94B6
:100F3000D903CE010197F1F70115110509F4B4CFDA
:100F40000E947201882309F4AFCF0E940000ACCF49
:100F500060E087E00E94670260E086E00E9467022E
:100F60001092B3011092B201E090B201F090B3017F
:100F70008BE5E816F1045CF4C7010E948C0085E063
:100F8000E80EF11CF092B301E092B201EDCF6FE0F8
:100F900070E080E090E00E94EB026EE171E084EB93
:100FA00091E00E9421038EE291E00E94300388E6E6
:100FB00091E00E9430038FE791E0B0CF2111E0E093
:100FC000E195F0E0EA58FD4F848980680E94D903DA
:100FD00064E971E086E792E00E94210360E087E027
:100FE0000E94670260E086E00E94670290E080E075
:100FF0000E948C006FE070E080E090E00E94EB02C5
:101000008FCF052E97FB1EF400940E94180857FD01
:1010100007D00E94330807FC03D04EF40C94180844
:1010200050954095309521953F4F4F4F5F4F089514
:1010300090958095709561957F4F8F4F9F4F089544
:101040000E945508A59F900DB49F900DA49F800D00
:10105000911D11240895B7FF0C9420080E942008C8
:10106000821B930B0895A1E21A2EAA1BBB1BFD0144
:101070000DC0AA1FBB1FEE1FFF1FA217B307E40777
:10108000F50720F0A21BB30BE40BF50B661F771FCF
:10109000881F991F1A9469F76095709580959095AF
:1010A0009B01AC01BD01CF010895A29FB001B39F88
:1010B000C001A39F700D811D1124911DB29F700D61
:1010C000811D1124911D0895991B79E004C0991F79
:1010D000961708F0961B881F7A95C9F78095089592
:1010E000EE0FFF1F0590F491E02D0994F894FFCFC7
:1010F00000000000A80108013501F5016601440166
:10110000580100000000DF0308011E031D030D0A43
:1011100000547261696E20436F6D696E67004154BF
:101120002B434D47463D310041542B434D47533DE2
:10113000223031353530303139343334220D0043EB
:10114000726F7373696E6720506F696E74204E4FB3
:101150005420436C6561720041542B434D47533D0D
:10116000223031373839363533343235220D0043A9
:10117000726F7373696E6720506F696E7420436C71
:1011800065617200547261696E204E6F7420436F06
:061190006D696E670000AE
:107E0000112484B714BE81FFF0D085E080938100F7
:107E100082E08093C00088E18093C10086E0809377
:107E2000C20080E18093C4008EE0C9D0259A86E02C
:107E300020E33CEF91E0309385002093840096BBD3
:107E4000B09BFECF1D9AA8958150A9F7CC24DD24C4
:107E500088248394B5E0AB2EA1E19A2EF3E0BF2EE7
:107E6000A2D0813461F49FD0082FAFD0023811F036
:107E7000013811F484E001C083E08DD089C08234E0
:107E800011F484E103C0853419F485E0A6D080C0E4
:107E9000853579F488D0E82EFF2485D0082F10E0AE
:107EA000102F00270E291F29000F111F8ED06801E7
:107EB0006FC0863521F484E090D080E0DECF843638
:107EC00009F040C070D06FD0082F6DD080E0C81688
:107ED00080E7D80618F4F601B7BEE895C0E0D1E017
:107EE00062D089930C17E1F7F0E0CF16F0E7DF06D8
:107EF00018F0F601B7BEE89568D007B600FCFDCFD4
:107F0000A601A0E0B1E02C9130E011968C91119780
:107F100090E0982F8827822B932B1296FA010C0160
:107F200087BEE89511244E5F5F4FF1E0A038BF0790
:107F300051F7F601A7BEE89507B600FCFDCF97BE46
:107F4000E89526C08437B1F42ED02DD0F82E2BD052
:107F50003CD0F601EF2C8F010F5F1F4F84911BD097
:107F6000EA94F801C1F70894C11CD11CFA94CF0C13
:107F7000D11C0EC0853739F428D08EE10CD085E9AC
:107F80000AD08FE07ACF813511F488E018D01DD067
:107F900080E101D065CF982F8091C00085FFFCCF94
:107FA0009093C60008958091C00087FFFCCF809118
:107FB000C00084FD01C0A8958091C6000895E0E648
:107FC000F0E098E1908380830895EDDF803219F02E
:107FD00088E0F5DFFFCF84E1DECF1F93182FE3DFCA
:107FE0001150E9F7F2DF1F91089580E0E8DFEE27F6
:047FF000FF270994CA
:027FFE00040479
:00000001FF
